:020000040000FA
:06000000020CEE020335C4
:03002B00020B18AD
:030043000209B4FB
:0300530002026640
:03006B000207CCBD
:03007B0002079DDC
:100083000202CA0101FF01010503010F10FEFF6215
:10009300156215621562151E141814621585220067
:1000A3000000004923000000000C0000000C0001C8
:1000B300FFFF0101010200F9050000006C06640066
:1000C300020200000002050207051E02051E020AC5
:1000D3000A03B80B02803E01020110149651180066
:1000E30002020600120D0D604F120D3A6012E75422
:1000F3008066F6120B9F7011120D79703B09090986
:10010300F4F618F618F618F622120BB47015120D41
:100113008308080860EAE6447FF618768018E4F658
:1001230018F622120D836016120D797012E4F60888
:10013300F608F608E65480F609090918181822EAA1
:10014300C0E0EBC0E0ECC0E0EDC0E0E687F0A4FB6C
:10015300ACF008E687F0A42CFCE435F0FA1809E6C5
:1001630087F0A42C4B60027401CA35F0FCE433FB26
:1001730009E687F0D2F7A42CCB35F0FC1908E68703
:10018300F0A42BCC35F0FBE433FD0819E687F0D25D
:10019300E7A42C4ACB35F0CD3400FC09E687F0D236
:1001A300E7A42DCC35F0FDE433FA0918E687F0D245
:1001B300F7A42CCD35F0CA3400FC08E687F0D2E76B
:1001C300D2F7A42ACC35F07A7E20E70B0ACB33CBC7
:1001D300CD33CDCC33CC33CB3350147004ED30E07E
:1001E3000ED2F1E4CD3DCDCC3CCC3B5005DA05C27B
:1001F300F1EB547FC63308E63392F0FBE73309E7AC
:1002030033C39A502D2B70190C0D4C4D70151806D5
:10021300E608C333700D20F10AA2F013F6E4188048
:100223000B4024E4F630F002768018F618F618F640
:100233008024D33B14501074FFA2F013F618768079
:10024300E418F618F6800FA2F013F618E63303F657
:1002530018ECF618EDF6D0E0FDD0E0FCD0E0FBD0D2
:10026300E0FA22C0E074F21205DDA2AFE433FED25D
:10027300AFE5A7FFE5A1F5085F54106006121D0C5A
:1002830075A1EFE5085F54086008121D1275A1F708
:10029300802BEFA2E0C0D0E508A2E092F0120C514F
:1002A300158182F05017906198E0F8900B4BE0C3F2
:1002B30098A2D265D0335002E8F075A1FEEEA2E019
:1002C30092AF7F010206F1C0E074F21205DDA2AF26
:1002D300E433FED2AF9061A4E0F8759B00E591583A
:1002E300540860087591F7121D5A802AE5915854F5
:1002F3001060087591EF121D60801BE8A2E0C0D06A
:10030300E591A2E092F0120C51158182F05007E0C2
:10031300C2E0F0121EA49061A3E0F8E5E95854048A
:10032300600E121E7A75E9FB906193E0A2E640F23B
:10033300808BC0E074F21205DDA2AFE433FED2AFCE
:100343009061A5E0F8E5BF585404600675BFFB1241
:100353001EBC0202C0C3E498F8E499F91203998021
:1003630026C3E49AFAE49BFBE920E7E9120399E444
:1003730098F8E499F922C3E498F8E499F9120399F7
:10038300E498F8E499F9C3E49AFAE49BFB22EB209E
:10039300E7CFE920E7E0B90010BB0008E88AF08462
:1003A300F8AAF022E4FBC8FA22EB70227B10C833D0
:1003B300C8C933C9335007C39AC3DBF280069A50C6
:1003C300012ADBEAC833F4C8C933F4C9FA2275F049
:1003D30008E4C833C8C933C933C99AC99B5004C98F
:1003E3002AC93BD5F0ECFBC833F4C8E4C9FA22129E
:1003F300043220F01430E72B74FFFCFBFA747F8087
:1004030022E4FCFBFA7480801AB48008BC00F2BBBF
:1004130000EF800F50EBF9E4C39AFAE49BFBE49CF2
:10042300FCE499C6CC18C6CB18C6CA18C6F922E490
:10043300C9C608CAC608CBC6D3330308CCC6339291
:10044300F0C3947F402E94184019C9B90704CACB4E
:10045300CC225025C309CA33CACB33CBCC33CC33DC
:10046300D9F422F4600DC9CCC313CB13CBCA13CA7E
:10047300D9F6CC22E4FCFBFA2214FCFBFA2208088E
:1004830008EAC0E0EBC0E086F0E7A4FA180986F0BA
:10049300E7A42AFA180986F0E7A42AFA180986F0CD
:1004A300E7A42AFA1986F0E7A4FBE5F02AFA19086B
:1004B30086F0E7A42BFBE5F03AFA190886F0E7A4E7
:1004C3002BFBE5F03AFA18180986F0E7A4C5F02BE0
:1004D300FBE43AFA1908E7C5F0C6A426F6E5F03BB3
:1004E300FBE43AFA1886F0E7A4F6E5F00826F6E40A
:1004F3003B08F6E43A08F6D0E0FBD0E0FA22E4CF7A
:10050300C0E0E4CEC0E0E4CDC0E0E4CCC0E075F0F0
:1005130020C3E633F608E633F608E633F608E63397
:10052300F6181818EC33FCED33FDEE33FEEF33FF12
:10053300C3EC9709ED9709EE9709EF97191919403D
:100543000FFFEC97FC09ED97FD09EE97FE191906CD
:10055300D5F0BEECF709EDF709EEF709EFF7191936
:1005630019D0E0FCD0E0FDD0E0FED0E0FF2225185A
:10057300C582C0E0E51934FFC583C0E0E518C39523
:100583008224F810AF088583198582188008858333
:1005930019858218D2AFCEF0A3E520F0A37808E640
:1005A30008F0A3DEFAEFF0A3E58124FAF8E608F0F9
:1005B300A3E608F0A3E608F0A30808E608F0A3E61C
:1005C30008F0A315811581D0E0FED0E0F815811560
:1005D300811581E8C0E0EEC0E022C0D02518C582B5
:1005E300C0E0E51934FFC583C0E0E518C395822454
:1005F300F310AF08858319858218800885831985D0
:100603008218D2AFC8F0A3E9F0A3EAF0A3EBF0A3FA
:100613007908E709F0A3D8FAECF0A3EDF0A3EEF024
:10062300A3EFF0A3D0E0F0A3D0E0F0A3D0E0F0A3D9
:10063300E520F0A3E5F0F0A322E9799EC608CAC637
:1006430008CBC608CCC6C370207996CACBCC701928
:10065300798ECBCC70137986CC700EF9802ACA338D
:10066300CACB33CBCC33CC331930E7F2CCCBCA3340
:1006730050147004EA30E00DE4CA3ACACB3BCBCC49
:100683003CCC500209C3E913C6CC182313C6CB18BC
:10069300C6CA18C6F922120D6EB900030206DBE4BE
:1006A3009003017812790F8002F0A3D8FCD9FA9055
:1006B3001112AA82AB83900086786179018015E4D8
:1006C30093A3AC82AD838A828B83F0A3AA82AB838C
:1006D3008C828D83D8E9D9E77582887583EC74039E
:1006E300120A7775828C7583217400120A77851933
:1006F30083851882E0C0E0A3E0F9A3E0FAA3E0FB5E
:10070300A37808E0F608A3DFFAE0FCA3E0FDA3E08A
:10071300FEA3E0FFA3E0C0E0A3E0C0E0A3E0F5D0C8
:10072300A3E0F520A3E0A3F5F010AF0885831985B6
:1007330082188008858319858218D2AFD082D0832E
:10074300D0E0F8D0E0320E000975F0108E1A8F1B3E
:1007530085821F85831E851882851983E0CEA3E0D9
:10076300CF851F82851E83EBC9EAC8EDCBECCAC3D4
:10077300E833C8E933C9EA33CAEB33CBC3EA9EF59E
:100783001DEB9FF51CB35004AB1CAA1DEC33CCED41
:1007930033CDD5F0DAAE1AAF1B22C0E074F21205E6
:1007A300DDA2AFE433FED2AFE58AA2E34006E58AD9
:1007B300A2E25003121BE0758A00758A00C2EBEEB9
:1007C300A2E092AF7F010206F1C0E074F21205DDF0
:1007D300A2AFE433FED2AFE589A2E65003121BE0D9
:1007E300758900C2C580D8D083D082ECC0E0EDC04B
:1007F300E0E493A3FCE493A3FDED4C600D1208C267
:10080300EC24FFFCED34FFFD80EFE493A3FCE493C1
:10081300A3FDED4C600D12095FEC24FFFCED34FFEA
:10082300FD80EFD0E0FDD0E0FCE493A3C0E0E493CF
:10083300C0E022851983851882E0A3FEE0A3F5209A
:100843007808E0A3F608DFFAE0A3FFE0A3C0E0E046
:10085300A3C0E0E0A3C0E0E0A3C0E0E0A3C0E010D9
:10086300AF088582188583198008858218858319C6
:10087300D2AFD083D082020A7DD083D082E9C0E098
:10088300E493A3C386F0C5F095F0F908E493A38637
:10089300F0C5F095F0700BE493A3C3994005E90408
:1008A3008002A3E475F002A42582F582E5F0358386
:1008B300F583D0E0F9E493A3C0E0E493C0E022C061
:1008C300E0C3E49396087401939618400FE493668B
:1008D300700808740193661870007019A3A3C3E429
:1008E3009396087401939618A3A3400DD0E0D0E02B
:1008F300D0E0020826A3A3A3A3A3A3D0E0227404F9
:10090300800474028000CCC0E0EDC0E0E518C39C15
:10091300CCAD1950011D10AF068C188D1980068CB3
:10092300188D19D2AF1209F9D0E0FDD0E0FC227482
:10093300028000CCC0E0EDC0E0E518C39CCCAD194B
:1009430050011D10AF068C188D1980068C188D1957
:10095300D2AF1209D7D0E0FDD0E0FC22C0E0C0F056
:1009630088F0E4936670080874019366187000A811
:10097300F0A3A3700BD0F0D0E0D0E0D0E0020826C3
:10098300A3A3D0F0D0E022D083D082CCC0E0E49304
:10099300A36006120A1A1470FAE493A36006120BFA
:1009A3005F1470FAD0E0FCE493A3C0E0E493C0E0EA
:1009B30022C0E074F21205DDA2AFE433FED2AFC26F
:1009C300C0E5D1A2E45003121C8EEEA2E092AF7FE9
:1009D300010206F1CAC0E0E493A3C582CCC582C577
:1009E30083CDC583F0A3C582CCC582C583CDC58322
:1009F300DAE5D0E0CA22CAC0E0E0A3C582CCC58252
:100A0300C583CDC583F0A3C582CCC582C583CDC5BF
:100A130083DAE6D0E0CA22C0E0E493A3D39C50106B
:100A2300E493A3C39C400AD0E0D0E0D0E00209A73E
:100A3300A3A3A3D0E022C008C3E096F50808A3E06F
:100A430096420808A3E096420808A3E0964508707A
:100A530001D3D00822700908080822601618181854
:100A6300C6C333C608C633C608C633C608C633C6AC
:100A7300D5E0EA22C09FF59FE473D09F22D083D0B4
:100A830082C09FE493C0E0740193C0E0740293F5C5
:100A93009F227404800A7403800674028002740126
:100AA300C0E0F404120AB0D0E0120D49222518F573
:100AB3008210AF08F518400215198008F518400296
:100AC3001519D2AF85198322BB0102E722C082C068
:100AD3008389828A83BB0003E08002E493D083D0BE
:100AE3008222C0D0251810AF08F5185002051980CE
:100AF30008F51850020519D2AFD0D02260160808A5
:100B030008C6C313C618C613C618C613C618C61319
:100B1300C6D5E0EA22C0E0C0D0E8C0E0E5A8D2AF85
:100B2300C2C7A2E792AFD0E0F8D0D0D0E032C3E0A2
:100B3300C696F608A3E0C696F608A3E0C696F6089E
:100B4300A3E0C696F622251810AF08F51840021543
:100B5300198008F51840021519D2AF22C0E0E493BA
:100B6300A36C7009D0E0D0E0D0E00209A7A3A3D022
:100B7300E022C3E09608A3E09608A3E09608A3E06A
:100B830096A2D265D03322E066701008A3E06670A7
:100B93000A08A3E066700408A3E06622181818E6A2
:100BA300084608700AE608C3337005E633F42208E2
:100BB30022191919E7094709700AE709C3337005B0
:100BC300E733F4220922E76670100809E766700A22
:100BD3000809E76670040809E76622C3E096F0088F
:100BE300A3E096F008A3E096F008A3E096F022E0D5
:100BF30056F008A3E056F008A3E056F008A3E05629
:100C0300F022E647F60809E647F60809E647F6083C
:100C130009E647F622E026F008A3E036F008A3E051
:100C230036F008A3E036F022E056F608A3E056F6C5
:100C330008A3E056F608A3E056F622E657F608099D
:100C4300E657F60809E657F60809E657F622C0E024
:100C5300E8C0E0E58124FCF8E6A2E7D0E0F8D0E0C4
:100C630022E627F60809E637F60809E637F6080903
:100C7300E637F622700422600D18C6C333C608C6D1
:100C830033C6D5E0F41822E026F608A3E036F608CA
:100C9300A3E036F608A3E036F622E4C396F608E4AA
:100CA30096F608E496F608E496F622C3E09608A3BF
:100CB300E09608A3E09608A3E09622C6F4C608C609
:100CC300F4C608C6F4C608C6F4C622600D08C6A258
:100CD300E713C618C613C6D5E0F322C3E79608097F
:100CE300E7960809E7960809E7962275D00075810B
:100CF3004075180175190300020699E6F008A3E68A
:100D0300F008A3E6F008A3E6F022E6084608C313BA
:100D13004608336002E633F422600C08C6C313C6E8
:100D230018C613C6D5E0F422E0F608A3E0F608A33C
:100D3300E0F608A3E0F622E7094709C3134709339E
:100D43006002E733F422CAC0E0E6F0A308DAFAD07F
:100D5300E0FA22EAF0A3EBF0A3ECF0A3EDF022E03B
:100D6300FAA3E0FBA3E0FCA3E0FD22E5C754F844AB
:100D730001F5C7790122E7C33319471947194722F8
:100D8300E6C333184618461846222518F582E4357B
:100D930019F58322C2AF75D69F02000022120A8082
:100DA300F62700120A801C2800120A805728001216
:100DB3000A809B2800120A80C22800120A80132985
:100DC30000120A80C32900120A807B2A00120A80BB
:100DD300432B00120A80032C00120A80472C0012B6
:100DE3000A806C2C00120A80AF2C00120A80FC2CA3
:100DF30000120A80542E00120A80DA2E00120A8092
:100E0300F82E00120A80222F00120A803C2F0012B3
:100E13000A804B2F00120A80562F00120A801630C8
:100E230000120A806F3000120A80313100120A80EA
:100E3300393100120A80FD3100120A806932001232
:100E43000A80943300120A80B93300120A802F34C7
:100E530000120A80C13400120A80813500120A8010
:100E6300A03500120A80AF3600120A80CD36001278
:100E73000A80DF3600120A804F3700120A80793762
:100E830000120A80073800120A80403800120A80D4
:100E93008C3800120A80A83900120A80F13B001234
:100EA3000A80FC3B00120A80073C00120A80123CB5
:100EB30000120A801C3C00120A80273C00120A80A0
:100EC300413C00120A804B3C00120A80553C001240
:100ED3000A80603C00120A80883C00120A80E33CCE
:100EE30000120A80ED3C00120A80113D00120A80B4
:100EF300353D00120A80933D00120A80D73D00124F
:100F03000A80F33D00120A806A3E00120A80A23E64
:100F130000120A80EE3E00120A804B3F00120A8044
:100F2300054000120A80E94100120A804242001281
:100F33000A80724300120A80984300120A802145F6
:100F430000120A809D4800120A806F4A00120A802C
:100F5300384C00120A80E54C00120A80504E0012F1
:100F63000A80EF4E00120A80344F00120A809E4F0F
:100F730000120A80AD4F00120A80345200120A8018
:100F8300E65300120A80535400120A8032550012AD
:100F93000A804B5600120A80C85700120A80E7578E
:100FA30000120A803C5800120A80415900120A803C
:100FB300695900120A80C15900120A80A05A00120E
:100FC3000A80E45A00120A802F5B00120A809A5B9F
:100FD30000120A80DB5C00120A803F5D00120A8067
:100FE3008D5E00120A80ED6000120A801E610012FD
:100FF3000A80D66200120A802B6300120A802F64D3
:1010030000120A80CC6400120A80256500120A804F
:10101300D86500120A807A6600120A801A670012E5
:101023000A80BF6700120A802A8901120A8069892F
:1010330001120A80B08B01120A80FA8B01120A8016
:10104300158D01120A807D8D01120A80B28D011265
:101053000A80268F01120A80A99101120A80D29276
:1010630001120A80689301120A80709C01120A809F
:10107300059D01120A80EC9F01120A80DFA0011274
:101083000A804DA101120A8093A201120A8075A35E
:1010930001120A805AA501120A806BA701120A8065
:1010A300D5A701120A80A7A801120A80D5A80112A8
:1010B3000A8092A901120A8069AA01120A8030AB40
:1010C30001120A80D4AB01120A80FDAB01120A801F
:1010D3001FAC01120A8075AE01120A804DAF0112D6
:1010E3000A8091AF01120A80F9AF01120A80B1B0F0
:1010F30001120A80E3B001120A8027B101120A80AB
:101103005DB101120A80A9B101120A80FEB1011278
:101113000A8003B201120A8056B201120A807BB21E
:1011230001120A808AB301120A80EEB301120A8007
:101133005EB401120A80EAB401120A80B7B7011241
:101143000A809BB801120A801EBA01120A8054BC9D
:1011530001120A8002BD01120A80B2BD01120A8087
:10116300F3BF01120A8096C001120A80DDC001128A
:101173000A8089C201120A809DC201120A80A7C295
:1011830001120A80CFC201120A80DBC201120A8057
:10119300FAC201120A801AC501120A8069C6011235
:1011A3000A80ADC601120A8055C701120A8038C8E9
:1011B30001120A80E3C801120A802FCA01120A80B1
:1011C3002DCB01120A80D3CB01120A8063CC01120A
:1011D3000A807ACC01120A80B1CC01120A80BBCCFE
:1011E30001120A80C6CC01120A80E4CC01120A80E3
:1011F30028CD01120A8085CD01120A80AACD0112E1
:101203000A80C4CD01120A8050CE01120A806DCF2C
:1012130001120A80DACF01120A80C1D001120A80BA
:10122300E8D001120A805CD101120A80D7D10112E1
:101233000A80DBD201120A80D1D301120A8080D442
:1012430001120A8093D501120A802FD601120A8057
:10125300BCD601120A809AD701120A80D2D7011292
:101263000A802AD801120A80F3D801120A8014D9FD
:1012730001120A809BD901120A80BFD901120A8088
:10128300E1D901120A802ADA01120A8040DC011234
:101293000A8027DD01120A80D8DD01120A800EE0E0
:1012A30001120A805EE001120A809EE001120A80A8
:1012B300E0E001120A803CE101120A806AE10112B6
:1012C3000A808EE101120A80E1E101120A800FE235
:1012D30001120A8048E201120A809DE201120A808B
:1012E30003E301120A8057E401120A807AE601122D
:1012F3000A80E7E601120A8010E701120A809BE7E1
:1013030001120A8002E801120A804DE801120A80E4
:1013130071E801120A8095E801120A80F0E80112CF
:101323000A800BE901120A80C4E901120A80E686E9
:1013330004120A80258704120A80788002120A8028
:10134300BE8002120A809E8102120A80A0820212CB
:101353000A80A38302120A802F8502120A808D85D8
:1013630002120A804A8602120A80688702120A80E1
:10137300D98702120A80158802120A806388021232
:101383000A806D8802120A80B18802120A800D89D0
:1013930002120A80A88902120A80258A02120A8090
:1013A300F48A02120A808D8B02120A80AD8B02121C
:1013B3000A80E38B02120A80148C02120A80D58CF5
:1013C30002120A80E58C02120A80398D02120A8009
:1013D300548D02120A80668D02120A806F8D0212EA
:1013E3000A80C98D02120A80258E02120A80718E2C
:1013F30002120A808C8E02120A80BD8E02120A80AB
:10140300DA8E02120A80E68E02120A805A900212C3
:101413000A80739002120A80DA9002120A80ED9019
:1014230002120A80FB9002120A80AF9102120A8014
:10143300939202120A80999302120A802394021251
:101443000A802D9402120A809A9402120A80B1949F
:1014530002120A80E39402120A801C9502120A8087
:10146300469502120A80A79502120A80C7950212B6
:101473000A80E59502120A802B9602120A80519780
:1014830002120A809E9702120A80CD9702120A80E6
:10149300439802120A806B9802120A80A4980212DF
:1014A3000A80B29802120A800A9902120A80599994
:1014B30002120A80989902120A80C89902120A80BD
:1014C300F49902120A80FF9902120A801D9A0212ED
:1014D3000A80DF9A02120A80E99A02120A802A9B82
:1014E30002120A807F9B02120A80939B02120A80D7
:1014F300A19C02120A80B49C02120A80C99C0212A7
:101503000A806B9D02120A80EE9D02120A80AC9E35
:1015130002120A80B79E02120A80E39F02120A8017
:10152300FF9F02120A8051A002120A8090A00212A9
:101533000A80A5A002120A8007A102120A8096A1BE
:1015430002120A80E1A102120A8032A402120A8066
:10155300B0A402120A8025A502120A8047A702122C
:101563000A805FA702120A8062A702120A806EA78E
:1015730002120A8082A702120A808AA702120A8034
:10158300BDA702120A806DA802120A80E3A8021204
:101593000A8056A902120A800AAA02120A80BFAA66
:1015A30002120A80DEAA02120A8084AB02120A80A7
:1015B300AFAB02120A80B2AB02120A801CAC021259
:1015C3000A8044AD02120A801CAE02120A80A7AE42
:1015D30002120A80C0AF02120A807DB002120A8092
:1015E300B6B002120A80E7B002120A80A5B1021255
:1015F3000A80D5B102120A80B0B202120A8049B33E
:1016030002120A80D4B302120A8085B402120A803D
:1016130008B502120A803AB502120A807BB502129B
:101623000A8067A703120A80CCA703120A8009A8BD
:1016330003120A8058A803120A806EAA03120A80B2
:1016430051AC03120A80BBAF03120A80F6AF031238
:101653000A8018B003120A807BB003120A80AFB06D
:1016630003120A80D2B003120A80FFB003120A8069
:101673005BB103120A80A29B03120A80209C03120F
:101683000A80569C03120A80C29C03120A80359E6C
:1016930003120A80519E03120A80969E03120A8047
:1016A300249F03120A807D9F03120A80AAA00312BB
:1016B3000A80BCA103120A8019A203120A8085A220
:1016C30003120A80E6A203120A8040DE02120A8095
:1016D300D4A303120A80E6A403120A8011A50312FD
:1016E3000A805CA503120A80A3A503120A8035A60B
:1016F30003120A80F0A603120A80A7B103120A801C
:10170300B1B103120A80FDB103120A806BB2031256
:101713000A808CB203120A803CB303120A80D0B54C
:1017230003120A80D9B503120A802CB603120A8069
:1017330055B603120A80DD2700120A804DB7031243
:101743000A808FB703120A80D9B703120A8038B808
:1017530003120A8064B803120A80F5B803120A80E0
:1017630034B903120A8073B903120A80A8B90312A9
:101773000A80BAB903120A80CCB903120A80EBB902
:1017830003120A80F4B903120A80AABA03120A8068
:10179300EABA03120A8004FF01120A808BF60312CD
:1017A3000A80C1F603120A800AF703120A805AF864
:1017B30003120A800B6800120A804A6900120A8029
:1017C300866900120A80456B00120A806E6B001254
:1017D3000A80016E00120A80456E00120A80CE6FE5
:1017E30000120A80667000120A80CE7000120A800E
:1017F3006F7100120A80B17100120A80F171001238
:101803000A807C7300120A80EC7400120A8011773C
:1018130000120A803F7700120A80667700120A805E
:101823006F7700120A80F67700120A80147B001289
:101833000A80348804120A804A8804120A8023E941
:1018430003120A8036E903120A80D3E903120A80DD
:101853000EEA03120A8029EA03120A804EEA0312EF
:101863000A8093EA03120A80C4EA03120A80F5EAA3
:1018730003120A807BEC03120A809B8604120A80FF
:10188300618104120A80978104120A80B3810412D1
:101893000A80F58104120A80058204120A809A8262
:1018A30004120A80A48204120A80FEE901120A804B
:1018B3004EEB01120A802BEC01120A80F9EC0112A3
:1018C3000A807AEE01120A80EEEF01120A807FF19C
:1018D30001120A80F3F101120A80D2F201120A8086
:1018E30080F901120A807B8E03120A80D08E0312C4
:1018F3000A80B98F03120A80529003120A809C90C7
:1019030003120A80F99003120A800D9103120A80D0
:101913003F9103120A803D9203120A8081920312BF
:101923000A809C9203120A80EB9203120A800193AD
:1019330003120A800E9303120A80429303120A8051
:101943005B9303120A80259403120A807F94031287
:101953000A80CD9403120A80EF9403120A806697DB
:1019630003120A809B9703120A802B9803120A80A2
:10197300A09803120A80A59803120A80E198031223
:101983000A80379903120A80FB9903120A80209A6E
:1019930003120A802A9A03120A802D9A03120A80DC
:1019A300B69A03120A80D19A03120A80E49A0312A8
:1019B3000A801F9B03120A80229B03120A802D9B1D
:1019C30003120A80699B03120A804E8604120A805E
:1019D300668604120A804FC403120A809EC403124F
:1019E3000A8040C603120A80FEC703120A8046C853
:1019F30003120A8068C903120A8099CA03120A8073
:101A0300BBCA03120A8017CB03120A8099CB0312B5
:101A13000A8068E402120A8089E402120A8013E54C
:101A230002120A8098E502120A8014E602120A8062
:101A33007DE602120A80C9E602120A8048E7021212
:101A43000A80DAE702120A806AE802120A80ACE826
:101A530002120A8018ED02120A8098EE02120A801E
:101A63006EEF02120A809DEF02120A8088F10212C1
:101A73000A8008F402120A80C1F402120A80DEF519
:101A830002120A8035F902120A8045F902120A800D
:101A9300A6FA02120A8032FB02120A8043FC0212E7
:101AA3000A80DCFC02120A80DFFD02120A8061FE5A
:101AB30002120A80008003120A80BA8003120A808D
:101AC3002C8103120A80C88103120A803882031210
:101AD3000A80F18403120A80C88503120A803586BE
:101AE30003120A80B28703120A807C8803120A80D9
:101AF300EC8803120A80B58A03120A80C88B03128A
:101B03000A80618C03120A80278D03120A807FDE0C
:101B130003120A80D3DE03120A802BDF03120A802A
:101B230076DF03120A80D8DF03120A8044E003122F
:101B33000A80F7E003120A8038E103120A804EE1BB
:101B430003120A80AAE103120A80E8E103120A8061
:101B5300A5FA03120A80D6FA03120A8090FB031235
:101B63000A80F6FB03120A8001ED03120A808DEE50
:101B730003120A80ED8404120A80FE8404120A8090
:101B83009E8504120A807FFC03120A808DFC0312D7
:101B93000A80E97F00120A80B88504120A80C8858A
:101BA30004120A80E38504120A80448604120A8020
:101BB300F9FE02120A807EFF02120A80E2FF02127D
:101BC3000A801AFE03120A8042FE03120A80B0FE44
:101BD30003120A80D0FE03120A8018FF03120A8040
:101BE30063FF03120A8083F901120A8098F9011234
:101BF3000A80A9FA01120A80EAFA01120A8004FB98
:101C030001120A8084FB01120A809DFC01120A80E2
:101C1300D0FC01120A80F3FC01120A8012FD0112AA
:101C23000A8031FD01120A8047FD01120A8067FD17
:101C330001120A808CFD01120A80FAFD01120A804A
:101C43007EFE01120A80CFFE01120A8019E20312FE
:101C53000A8027E203120A80A1E203120A8085E3C5
:101C630003120A803EE503120A80128804120A80D6
:101C7300FBD903120A8067DA03120A8026DB0312F8
:101C83000A8030DC03120A8089DD03120A80E4DD56
:101C930003120A8039DE03120A8042DE03120A802D
:101CA30054DE03120A8068DE03120A808AD003120C
:101CB3000A80DFD003120A80DBD203120A800DD31D
:101CC30003120A802FD303120A8048D303120A8017
:101CD30061D303120A806BD403120A8006D5031260
:101CE3000A80008004120A80248004120A803D8046
:101CF30004120A80708004120A80A18004120A80F0
:101D0300CF8004120A80318104120A8040810412B8
:101D13000A804A8104120A80578104120A8038EF2C
:101D230003120A805EEF03120A809BEF03120A80FC
:101D3300AAEF03120A80C9EF03120A8031F00312DB
:101D43000A803AF003120A8099F003120A80BDF068
:101D530003120A807CF103120A8089F103120A80BC
:101D63009AF103120A80738704120A80908704127F
:101D73000A807DD503120A80DBD603120A80E8D6D7
:101D830003120A80FBD603120A801AD703120A80B1
:101D930030D703120A8044D703120A80B9D703123B
:101DA3000A801ED803120A80CED803120A80A3D950
:101DB30003120A80B3D903120A80C2D903120A801C
:101DC300507F00120A80747F00120A809C7F0012E9
:101DD3000A80C47F00120A80C8F103120A80EFF15F
:101DE30003120A8010F203120A8075F203120A80AA
:101DF3002EF403120A8047F403120A8053F40312E9
:101E03000A8067F403120A8085F403120A808FF4B0
:101E130003120A8099F403120A80ACF403120A80B5
:101E2300FFF403120A8038F503120A8067F50312E0
:101E33000A80B5F503120A8004F603120A801FF61E
:101E430003120A8029F603120A803AF603120A8063
:101E530080F603120A80A5FF03120A8013BB031244
:101E63000A803DBB03120A8059BB03120A806CBB74
:101E730003120A8082BB03120A80DFBB03120A80AB
:101E830012BC03120A804EC003120A8074C10312EB
:101E93000A80A7C103120A80F3C103120A801FC379
:101EA30003120A8047C303120A805CC303120A8029
:101EB3006CC303120A80B0C303120A8011C4031255
:101EC3000A8021C403120A80A78204120A80C282F4
:101ED30004120A80EB8204120A80058304120A802A
:101EE3002A8304120A80498304120A80618304123C
:101EF3000A808F8304120A80A98304120A802F8721
:101F030004120A80A3E503120A80AAE503120A80D9
:101F1300B6E603120A80E6E603120A800CE7031210
:101F23000A802FE703120A8051E703120A808BE726
:101F330003120A80F1E703120A802AE803120A80D7
:101F430076E803120A80A3E803120A80C3E80312A7
:101F53000A80BDF803120A80D5F803120A80C3F978
:101F630003120A80A2FA03120A80DA8304120A8097
:101F73004C8404120A808A8404120A80CB840412DB
:101F83000A80957B00120A80B47B00120A80037CCE
:101F930000120A801F7C00120A80507C00120A8003
:101FA3005D7C00120A806A7C00120A80567D001252
:101FB3000A80947D00120A80A47E00120A80AF7EFC
:101FC30000120A80C17E00120A80CA7E00120A80B3
:101FD300D47E00120A80CDCB03120A8012D00312E2
:101FE3000A8020D003120A80E58704120A80AF8793
:101FF30004120A80D7FF01120A80548804120A804F
:10200300F8DD02120A806ADD02120A805DDD021227
:102013000A8057DA02120A80B9D702120A8082D6DE
:1020230002120A80D6D502120A801CD402120A8038
:10203300CCD102120A80892700120A80E5260012F9
:102043000A8053D102120A80FAD002120A805B2658
:1020530000120A80FA2500120A808AD002120A802E
:1020630061D002120A8041CE02120A800DCE021202
:102073000A80DACD02120A80BECD02120A80D7CCC2
:1020830002120A808FCC02120A80DACA02120A8074
:102093005ACA02120A8057CA02120A8058C9021287
:1020A3000A8026C902120A8063C802120A808EC6F9
:1020B30002120A801FC602120A80A82500120A8093
:1020C300962500120A8041E402120A8023E40212D8
:1020D3000A80EFE202120A80F1C502120A80EEC5FD
:1020E30002120A80DBC502120A8086C502120A8028
:1020F3004CE202120A8075C502120A8067C40212FA
:102103000A8031C402120A80DFC302120A80FFE090
:1021130002120A80BCB603120A8080C302120A802C
:102123004FC302120A8017C002120A80D7BF0212DD
:102133000A80CBBF02120A802BBF02120A806BBE39
:1021430002120A80EDBB02120A807EB902120A80D3
:102153003CB902120A8010B802120A80C5B70212F3
:102163000A8004B702120A80D7B602120A801AB68E
:1021730002120A80B0B502120A80EAB502120A807E
:10218300AADE02120A8027A30300000080FBE47387
:1021930000013636010100010201000103010001C3
:1021A3000401060605020000070100340801000FC0
:1021B300090401010D0100FF0E08000017020000D1
:1021C300190100FF1A0100011B0100FE1C01000898
:1021D3001D0200001F010001200100012102000077
:1021E3002301000F2402000026010001270100083B
:1021F300280200FF2A0100072B0102402C010000E6
:102203002D0100012E0100012F0100FF30010B1CE5
:10221300310800003A0100083B01000F2F010000C4
:102223000302710230016002110270020102020214
:1022330002028002100261023A004100630273024B
:10224300720262024302000213023800000200021B
:10225300040212020002000200020002040204024D
:10226300370037003C02440200023900000200023A
:102273006502000235028102000205028202830226
:102283000002030071003001600011007000310290
:10229300200350048000100061000000140063005C
:1022A3007300720062004300000013000600000088
:1022B3000000040012000000000000000000040001
:1022C3000400370037003C02440000000000000017
:1022D30000006500000035008100000005000000DB
:1022E30083000000030471040204600411047004F9
:1022F300020402040104020410046104000414042F
:1023030063047304720462044304000413040604A4
:102313000004000404041204000400040004000484
:102323005104640000040004000444040004000495
:1023330000040004650400043504810464000504FA
:102343000004830400040103710301030103010377
:10235300010301032203020301031003000300032B
:1023630000030003000300030003420300032403EC
:1023730006030003000304031203250323032503B9
:1023830023030403040300030003000344030003C3
:1023930000032303000365032100350381030003C6
:1023A30005030003000300030101710101010101A1
:1023B30011010101310101010101800110016101DC
:1023C3003B001400630173017201620143010001C8
:1023D300130106013D013500040112010001000152
:1023E3000001000104010401330133013C014401F4
:1023F3003201360000010001650100013500810151
:10240300000105018201830100013600010006007D
:1024130000000F00000000000000000000000000AA
:1024230003FFFF00000403FFFF0000FFFF0FF401A1
:102433000005C4040320000100000B00000000009D
:1024430000000003010F0000CC1A1300661A0100FC
:10245300CC1A0200301A0300361A04003C1A050095
:10246300421A06004E1AFFFF000001701006A0106A
:10247300089A100BAC1010EC0F027610058E1007A3
:102483007C100C52100D6410FF000003EAF5E5D533
:10249300D5C5B5A595958585757565655555454529
:1024A300353525251515057814A8147E148414A232
:1024B3001496149014AE14B414BA14C6148A147275
:1024C300146C1400160F00000B150B020002220FF0
:1024D30032000006621574157A15421480153C14F7
:1024E30048147C137613B213B813AC136413BC15DE
:1024F300DA15E015C215CE15C81530301618192097
:10250300231A1C1E300C0E020B040B0A0708000FC3
:1025130000383C3E363B3B352B432C3030171819E3
:1025230021301B1D1F300001191618161615230321
:102533000000034948424D1817250502B0158615BA
:102543008C15981592159C14C014D415CC14D21460
:1025530002040201010101090288138E138213BED2
:10256300130000000000009413A61300BE040A1514
:102573000004007F00E8030C0028000000000003B3
:1025830008100C0A03080900040001FF1E1E0C05B5
:10259300040F08C082C0838A828B83E0D2E7F012E3
:1025A300199402372BC082C0837900122A62125712
:1025B30097C082C08390033412451DD083D082C359
:1025C300E09CA3E09D500C125E6BFAA3E01225D9A8
:1025D30060010902372BFBEA75F00BA4FAA8F0752A
:1025E300F00BEBA428FB900336E02AF8A3E03B882A
:1025F30082F583E0540F2274F71205718908122AB9
:1026030062122B08ACF075F00BE9A42CF990033699
:10261300E028FEA3E039FF740165086006740265D3
:102623000870208A828B83122AF41237F9740265A8
:1026330008701B1229B3122B3B70138E828F83E415
:10264300F0800BEA2403FCEB122AD6122AE2EEFAFC
:10265300EFFB1220C002376374F412057112679204
:1026630079008E828F83E06076890A890B8065E525
:102673000A75F00BA4FAA8F075F00BE50B1225E62A
:102683007046E50A75F00BA4F8AAF075F00BE50B9C
:10269300122B1A8E828F83E0850882850983122B81
:1026A300FC850882850983A31237F9EE2403FCEF26
:1026B300122ADF123732125211AA08AB091220C0B4
:1026C3007901900334124C26E50A2401F50AE50B3F
:1026D3003400F50B1229BBE50A9AE50B9B409002E7
:1026E30039A374F5120571EAFEEBFF740B120D8D1D
:1026F300123737750A01EC4D602BEC1267AEED1201
:1027030057971237F17901122054E5084509606F94
:10271300850882850983A312679C7902AA08AB09FD
:10272300122054805AE5084509602B12579B123E2C
:1027330065123733122B25700CEEFAEFFB12204E85
:10274300E9F50A80CBEE2403FA122A5D703179038E
:10275300EEFAEFFB80CA8E828F83A3E064FE7003E0
:10276300A3E0F4700BEE24030A0A0A122A5D700C2C
:10277300EEFAEFFB12204EE9F50A8003750A00A971
:102783000A7F0302083674F7120571900334123777
:1027930073EA4B602FEA75F00BA4FAA8F075F00BFF
:1027A300EBA428FBEAFEEBFF1217A89003361237BF
:1027B30073900336124A6B6012EEFCEFFD79001240
:1027C300170C8007900336E4F0A3F00237639003FD
:1027D300341241D5C3EE98EF9922C082C083EC4DE9
:1027E3006005121F7C80097C087D00790012170C9C
:1027F30002372B74F61205717900EA4B60187800E2
:102803008808125ADEEB125E6760047901780808C3
:10281300E8C3940840EA02380274F712057174F3AE
:10282300120B49ECFEEDFF851882851983E4F00451
:10283300120D8DEAF0A3EB124F977403120D8DACBA
:1028430082AD83EEFAEFFB121736EEFAEFFB120DB1
:10285300A002375E74F712057174F3120B49ECFE94
:10286300EDFF851882851983E4F0EAFCEBFD740320
:10287300120D8D122BF57401120D8D1237ED8E8210
:102883008F831237F974FE68700374FF69600479EB
:10289300018002790002375E74F7120571EAFEEBDC
:1028A300FF1228F970141229048E828F83E0F4F842
:1028B3008A828B83E058F01220C0A9080237637420
:1028C300F7120571EAFEEBFF7508008E828F83E035
:1028D30060221228F9701D1229048A828B83E08FEB
:1028E300838E82F8E058700CE0F88A828B83E0488C
:1028F300F01220C080C41220BAE9F50874016508FB
:10290300221267A7122B0C122A4EFAA3E039FB22DC
:1029130074F41205718A088B097C007D001229B3B7
:10292300122AE2122A7312679979008508828509AF
:1029330083A3E064FE7003A3E0F460717E007F0074
:102943008062EEFAEF1225D96057EEFAEFFBEA75D3
:10295300F00BA4FAA8F075F00BEBA428FB90033658
:10296300E02AF50AA3E03BF50B850882850983A3DA
:10297300124EE5850A82850B83A3E06A7003A3E008
:102983006B701EE50A2403FAE50B122A5E700AE552
:102993000A2403FCE50B122ADF122A677901125776
:1029A300AD1233521229BBEE9AEF9B40950239A325
:1029B300EA24030A0A0AEB22900334125384C32243
:1029C30074F31205718A088B098A828B83A31267B9
:1029D3009C122A62126799750C001229B3122A5E9F
:1029E30070547E007F008049122A40FAA3E0398A9E
:1029F30082F583E0540F6036122A40F50AA3E039CA
:102A0300F50BE50A2403FCE50B122AE93400FB125B
:102A13001F76E964017017850A82850B83A312541C
:102A230045A31237F9122A67750C011257AD1233F9
:102A3300521227D140B2A90C7F05020836EEF8EFF7
:102A4300F9E875F00BA4F8122A4E22AAF075F00BE0
:102A5300E9A42AF9900336E02822EF122B3522123B
:102A630067ADEB22122A731257A8EEF0A3EFF02200
:102A7300E5081267AEE5092274F5120571EAFEEB6B
:102A8300FF8E828F83A312679C7C007D00EE24035C
:102A93000A0A0AEF122AE2EEFAEFFB1220BAE9F56C
:102AA3000A7401650A70291267A7122B08AAF07528
:102AB300F00BE9122B1A850882F583122AF4122BE4
:102AC30025700DE5082403FCE509122AD6122AE233
:102AD3000227823400FDEE2403FAEF22122AE9349E
:102AE30000FB121736223400FDE5082403FAE5093A
:102AF30022A3122AF922122AFD22E0F8A3E0F98E7A
:102B0300828F83A322122B0C223400F5831241D926
:102B1300E875F00BA4F822122A54F508A3E039F55E
:102B23000922E8F0A3E9F0E5082403FAE509122BEA
:102B33003522122B3B6401223400FB120DA0E92243
:102B430074F312057174E6120B49126792750C0146
:102B5300750800750900750A00750B0085188285D4
:102B63001983E4F0EE2403FCEF3400FD7403120D2B
:102B73008D122BF5E964017023740B120D8D12373E
:102B8300F17401120D8D124EE97003A3E0696051D7
:102B9300851882851983858208858309740D120D32
:102BA3008DE4122BFC740E120D8D1237F9740D1275
:102BB3000D8DAA82AB83120DBEE96401700B740DF7
:102BC300120D8D85820A85830B780A120A9DAC0843
:102BD300AD09EEFAEFFB12203C7402120AE5E9F5A7
:102BE3000CEEFAEFFB120DB8A90C741A120AE502E7
:102BF3002A3B122EC8120DC42212376E1241D5225F
:102C0300C082C083780079008003122CF31229BBA1
:102C1300E89AE99B5029E8FAE9FBEA75F00BA4FA74
:102C2300ACF075F00BEBA42CFB900336E02AFCA36D
:102C3300E03B8C82F583E0540F70CF7900800279FA
:102C43000102372BC082C08390257212422BEC7590
:102C5300F012A4FCA8F075F012EDA428FD79FF7A18
:102C6300BA7B0B12170C02372B74F7120571E9FEAE
:102C7300EAFF7A007B00780079008028E8FCE9FD10
:102C8300EC75F012A4FC85F00875F012EDA425088C
:102C9300123108C39E400AE0FCEFC39C400312328A
:102CA30027122CF31230FC40D3023763C082C08357
:102CB300780079008003122CF3122CE7501F123195
:102CC3000CF470F2E875F012A4F8AAF075F012E9AA
:102CD300A42AF974BA28FA740B39FB80047A007BAE
:102CE3000002372B9025721231BDC3E89AE99B226B
:102CF300E8240108E93400F92274F012057174F331
:102D0300120B498A0A8B0B8C0C8D0D8908EC450D2F
:102D13006016AA0CAB0D120E128A0E8B0FAE0EAFFD
:102D23000FEE4F6003022DBA120DE88A0E8B0FA827
:102D33000EA90FE8FEE9FFE849607C902580122E7A
:102D43001C60227403650860067404650870167AB3
:102D5300047903120DE2902580122E3340077A0086
:102D63007B00022E1990257E122E1C601B740165B8
:102D730008600674026508700F7A027901120DE289
:102D830090257E122E3350D68518828519837401BF
:102D9300F0120D8D125211AC0CAD0D7403120D8D8A
:102DA300122EC1740B120D8D12373F123BD9E41250
:102DB30051F91212BC8004EE4F604A780074FF256B
:102DC30008C39404500278048E828F831252118EAA
:102DD300828F83A3A3A3A3E508F0E88E828F83A346
:102DE300A3A3A3A31252191203911231D48E828F7B
:102DF30083A3A3A3A3A3A3A3F01231CB120D621247
:102E03005791120D56122E214005901116E4F0121F
:102E13001196EEFAEFFB0241DF12533349227A0493
:102E23007900120DE2902572125E4DEA98EB992219
:102E3300122E4C758325758272E493C398F8A3E42C
:102E43009399F9C3EA98EB9922E493F8740193F9FF
:102E53002274F212057174F3120B498A088B09EC80
:102E6300FEEDFF750A00EEFAEFFB120E128A0C8BD1
:102E73000DA80CA90DE849603E88828983E06508A6
:102E83007004A3E06509602F88828983A3A3A3A3A9
:102E9300E0C39405502112563F8518828519837427
:102EA30001F0120D8D125643EEFCEFFD7403120D6B
:102EB3008D122EC1750A01A90A740D024CDD122E62
:102EC300C8120DD022AA82AB8312173685188285C9
:102ED3001983AA82AB832274F6120571122F16602E
:102EE3000FA3A3A3A3E014C39404500479018002A5
:102EF300790002380274F6120571122F16600FA3BF
:102F0300A3A3A3E014C394025004790180027900BF
:102F1300023802120E0C8A828B83E5824583227467
:102F2300F6120571122F16600BA3A3A3A3E070047E
:102F3300790180027900023802C082C083EAFCEB87
:102F4300FD7A007B00023728C082C0837C007D00AD
:102F530002372874F412057174F3120B49EAFEEB7D
:102F6300FF8C0A8D0BC3EC94F8ED94FF4007EE4FF2
:102F7300700302300F750800750900802E851882D2
:102F83008519837401F012337A120D8D1233886020
:102F9300137403120D8DAC82AD83EEFAEFFB121F97
:102FA30076E97049E50824011231A8902572E412EC
:102FB300533BE50898E509995052E50875F012A4CA
:102FC300F8AAF075F012E509A42AF9125E8060D41C
:102FD300EE4F70A974FF650A700474FF650B60C43B
:102FE30012336A650A7004A3E0650B70B7E50875D0
:102FF300F012A4F508A8F075F012E509A428F50964
:1030030074BA2508FA740B3509FB80047A007B0037
:1030130002399E74F412057174F3120B497508009A
:10302300120E128A0A8B0BAE0AAF0BEE4F602A8583
:1030330018828519837401123768F8A3E0F9740BB9
:10304300120D8D12387C120DB27C127D0079FFEEC9
:10305300FAEFFB12170C750801122E21500990117B
:10306300167401F0121196A90802399E74F712051D
:1030730071E9FE74FE6A700374FF6B780079007067
:10308300058052122CF31230FC504AE8FCE9FDECA7
:1030930075F012A4FCAFF075F012EDA42F123108F5
:1030A300F460E0E8FCE9FDEC75F012A4FC75F012A5
:1030B300EDA42FFD74BA2CF582740B3DF583E06A01
:1030C3007003A3E06B70BC800912310C14C3940429
:1030D3004017122CF3122CE75018EE70EC12310C3F
:1030E30064016005E0640370E912335BFAA3E0FB5B
:1030F30080047AFE7BFF02376390257212422FC34E
:10310300E89CE99D2212325C22E8FAE9FBEA75F0B9
:1031130012A4FAACF075F012EBA42CFB74BE2AF5E2
:1031230082740B3BF583E022120E2402372BC082FC
:10313300C083790180F274F01205718A0A8B0B7ACD
:10314300047901120DE28A0C8B0DEA450D603EEA0B
:10315300C333FAEB33FB1217A88A088B09AE08AF07
:1031630009EE4F60237AFE7BFF120E2A74FE6A700B
:103173000374FF6B601B850882850983123773E52F
:103183000824021231A880E1750C0080047E007FC0
:1031930000850A82850B83E50CF0EEFAEFFB024112
:1031A300E4E5082407F508E5093400F5092290252C
:1031B3007212422FC3EA9CEB9D22E493FA740193AB
:1031C300FB221217007403221257A2E4F09089081D
:1031D30022E88E828F83A3A3A3A3A3A3A3A3123165
:1031E300F674011231F6A3F0EE24101257A5E4F0A1
:1031F300A3F022123BE5A3A3A322C082C0837A00DB
:103203007B008004191232271231B150101232465A
:10321300C3940550F0E970EC12323080047A007BDD
:103223000002372BEA24010AEB3400FB22EA75F093
:1032330012A4FA75F012EBA428FB74BA2AFA740BE1
:103243003BFB22EAFCEBFDEC75F012A4FCA8F07545
:10325300F012EDA42812325C22FD74BE2CF58274A8
:103263000B3DF583E02274F712057174F3120B49D9
:103273007E007F0002330EE50875F017A4F8A9F06D
:103283001260E1FAA3E0FBEEF8EFF9E875F012A49F
:10329300F8ACF075F012E9A42C1233696A7003A339
:1032A300E06B603FE50875F017A4F8AAF0EA126036
:1032B300E0F8A3E0F97401120D8DE0687003A3E058
:1032C300696020E50875F017A4F8EAF9743628FC5C
:1032D300740D39FD7403120D8DAA82AB83121F7610
:1032E300E96014E50875F017A4F8A9F0743428FA16
:1032F300740D39FB1212C80508902584E493F8E590
:1033030008C398500302327A123352902572126422
:10331300275039EEF8EFF912335BF47003A3E0F4AE
:1033230060E68518828519837401F0EEF8EFF9E8F9
:1033330075F012A4F875F012E9A42AF912337A127F
:103343000D8D12338860C175080080AD02375EEEC3
:1033530024010EEF3400FF22E875F012A4F8AAF05E
:1033630075F012E9A42AF912336E2274BA28F58291
:10337300740B39F583E02274BC28F582740B39127F
:1033830041D3740B22E8F0A3E9123884120DCAE981
:1033930022C082C08390033D7488F0A37410F09020
:1033A300033F7482F0A37410F090034374A2F0A35C
:1033B300740EF002372B74F7120571EAFEEBFF90DF
:1033C3000377E06408601BE0640460168E828F83D9
:1033D300E0540364017048123732123CDAE06406A9
:1033E300703D8E828F83A3A3E064FE7003A3E0F499
:1033F300602D8E828F83A3A31237ED900368E0685C
:103403007003A3E069700BEE2415F582EF125E677B
:103413006008121136E9F508800812113C80F67530
:1034230008C2EEFAEFFB1217AE0228BD74F41205C0
:10343300718A088B098A828B83E0F8A3E0FAE82A71
:10344300FAE43400FB1217A88A0A8B0BAE0AAF0BFF
:10345300EE4F6063850882850983E0FC7D00790077
:1034630012170C8E828F83A3A312679C1211788E7E
:10347300828F83A3A3A3A31237738508828509834D
:10348300E0F8EE28F8EF34001237F5850882850955
:1034930083A3E0C0E0EE240D125794D0E0F01211A4
:1034A3008AEE240E125794E9124E46E0C0E0EE2451
:1034B30011125794D0E0F0EEFAEFFB0239A374F641
:1034C30012057174EB120B49EAFEEBFF124A6860B6
:1034D300030235657A077B001217A8900339123768
:1034E30073124A6860788E828F83120D6290033A5A
:1034F300123CDD120D56126660C0E0123571D0E049
:10350300F0EE2405FAEF3400FB8A088B098A82F572
:1035130083E0C0E012356CD0E012399AE0C0E012CB
:10352300356CA3D0E01237DF120D6285188285193E
:1035330083120D5688828983E0C0E07405120D8DD5
:10354300D0E0F0850882850983E0C0E07404120DA1
:103553008DD0E0F07407120D8D1236A78006791016
:103563008002790174150237FF123571A32290038B
:1035730039E0FAA3E0F5838A82A3A3A3A322C0823E
:10358300C083124A68600D90033912537290033955
:10359300E4F0A3F01210A612126802372B74F01293
:1035A300057174EB120B49ECFEEDFF8908742512CB
:1035B3000D8D780C120D2B7429120D8DE0F9742AE0
:1035C300120D8DE0FC742B120D8DE0FD740F6970EC
:1035D30005740F6C601290115DE06402700579C18F
:1035E3000236A2E9C39C40F6900378780C120CFED5
:1035F300E50890037EF0E990037CF0ECA3F0ED90F6
:10360300037FF074FF6A700374FF6B701D90116881
:10361300E0F47003A3E0F4700512171E800C901100
:1036230068123748E8F0A3E98007900375EAF0A32E
:10363300EBF0EE4F6017EEFAEFFB121328E964018B
:10364300700BEEFCEFFD7A897B03121F7C900368FD
:10365300E4F0A3F090036BF0A3F0900388F09011D3
:103663005DE06402700890037C740FF0A3F0900394
:10367300777405F014120D8DE4F0900378120D6247
:10368300851882851983120D5690037EE0C0E0747D
:1036930005120D8DD0E0F07407120D8D1236A7744C
:1036A300150241E1E4123884121FA62274F71205B1
:1036B30071E9900338F07A807B009003C2E0F9123D
:1036C3001862120E727900023763C082C0839003BE
:1036D30038E07003121A60120E72804CC082C083ED
:1036E300900338E09011157004E4F0802D7401F01C
:1036F300900338E0F460237C41E0C394415002E03E
:10370300FCECF8E0C398F0EC75F0E8A4CCA8F075F5
:10371300F003A428FD7A801242377A157B11794190
:10372300121F948003120E18D083D082020A7DEEFA
:103733001257A322E0F508A3E0F50922123743222A
:10374300122AFDA3221241D59003752274F71205A4
:1037530071EB90037FF01210948005740D120AE54B
:103763007F0102083612376EA3E0221237DFA3224D
:10377300EAF0A3EBF02274F712057174F8120B4907
:10378300EAFEEBFF7900900377E064087044851844
:103793008285198374FDF0A374FFF0121172740211
:1037A300120D8D1237737405120D8DE412376EE00E
:1037B300C0E07404120D8DD0E01237DAC0E0740655
:1037C300120D8DD0E0F07407120D8DE412388012C3
:1037D30011B474080237601237DFE022F08E828F53
:1037E3008322F0851882851983221241D522E0F8BD
:1037F300A3E0F91257A2E8F0A3E9F022120AE57F49
:1038030002020836C082C0839003497432F0A37465
:103813000FF09003EF740EF0A37412F090034D7445
:1038230068F0A3740FF090034F7432F0A3740FF099
:10383300900351746EF0A3740FF002372B74F412DB
:10384300057174F9120B498A088B098C0A8D0B8553
:1038530018828519837808120CFE7404120D8DE901
:10386300F07405120D8DE4F07406120D8DE4123818
:1038730080120E5474070239A0E8F0A3E9123884C9
:10388300221237E5AA82AB832274F41205718A08E7
:103893008B098A828B831257B0EE4F7003023998DB
:1038A300900312124A6B60158A828B83A3A3E0F9FB
:1038B300EEFAEFFB900313123CDD1221918E828FFF
:1038C30083A3A3A3A3A3A3A3A3A3E0640270748EFF
:1038D300828F83A3A3A3A3A3A3E05402700302399B
:1038E3006A850882850983A3A3E064E960798E82EF
:1038F3008F83A3A3A3A3A3A3A3A3A3A3E070149061
:103903001160E0048E828F83A3A3A3A3A3A3A3A325
:10391300A3A3F08E828F83A3A3A3A3A3A3A3A3A391
:10392300A3E01412399AA3A3A37404F090116112B3
:1039330051EBE8F0A3E91262C48B0BEA450B700369
:10394300125CA28E828F83A3A3A3A3A3A3A3A3A387
:10395300E0640260128E828F83A3A3A3A3A3A3A315
:10396300A3A3E06406702E8E828F83A3A3A3A3A3D5
:10397300A3E0A2E0501F850882850983A3A3E0F991
:10398300EEFAEFFB1220728E828F83A3A3A3A3A36D
:10399300A3E054FEF08009123BE122740D120AE504
:1039A3007F0402083674EC12057174DD120B49EAC8
:1039B300FEEBFF8C088D097437120D8D780C120DF8
:1039C3002B750A007405120D8DAC82AD8312218014
:1039D3007412120D8DE070087415120D8DE06020C5
:1039E3007405120D8DE0A2E6501E8E828F83A3A371
:1039F300A3A3A3A3A3A3A3124EE51211EAE96008AC
:103A03007903121F64023BC77405120D8DE0540C39
:103A130064047005750B018003750B00E0A2E5508B
:103A230035750A01E50BA2E0402C1211788A108B40
:103A330011A810A911123732E0687003A3E069607E
:103A4300157405120D8D1267A3124EE112207EE943
:103A53006004790480AC7405120D8DE0A2E6502257
:103A63007406120D8DE0540370187405120D8DE069
:103A7300540C640C600CE0540C6408600575100170
:103A830080037510007405120D8DE05403F8740261
:103A930068700C1267A3124EE11220D2023BC77466
:103AA3000168703AE510A2E05003123BCF7405128F
:103AB3000D8DA882A9837403120D8DE8F0A3E9127A
:103AC30041C9851882851983123BD9E0C0E074028D
:103AD300120D8DD0E0123880122162023BC7E860DC
:103AE30003023BC790035FE0640170108E828F83F3
:103AF300A3A3A3A3A3A3E07003023A557422120D58
:103B03008D74021241C9741A120D8D1237F9E51022
:103B1300A2E050087405120D8D123BCFE50BA2E015
:103B2300506AEE240FF582EF125E67C0E07417123D
:103B33000D8DD0E0F0900314124A6B7003023BC763
:103B43001211788A128B13A812A913741A120D8DED
:103B5300E0687003A3E069706B780C120A95780A29
:103B6300120AA17808120A9DA910740C120D8DACCB
:103B730082AD837421120D8DAA82AB83900314123C
:103B83003CDA1221917407120AE58038780C120A84
:103B930095780A120AA17808120A9D9003751209F2
:103BA30005EE2412F582EF125B957423120D8DAC92
:103BB30082AD83740E120D8DAA82AB8312206674BC
:103BC30009120AE57423120AE502628F1267A3122F
:103BD300538012210E22E8F0A3E9123BE122123BAB
:103BE300E522F08E828F83A3A3A3A3A3A32274F75A
:103BF30012057112194C02376374F7120571121909
:103C03005202376374F712057112195E023763C0EB
:103C130082C08312195802372B74F71205711219D7
:103C23006402376374F71205717409120D8DE0F5A0
:103C3300087808120AA11219707401023760C08251
:103C4300C08312197C02372BC082C08312198202EF
:103C5300372B74F712057112198802376374F71240
:103C63000571EAFEEBFF8908740165087014790099
:103C7300120FAA90258FE493FC7900EEFAEFFB1262
:103C83000F2002376374F412057174F9120B49E9BA
:103C9300FE8A088B098C0A8D0B7413120D8D124E3C
:103CA300E590062C124A6B6027EE851882851983EE
:103CB300F07401120D8D7808120CFEEAF8EBF9741A
:103CC30005120D8D12387C90062C123CDA122191CC
:103CD300023877FB90034BE0F8A3E0F58388822258
:103CE300C082C0831219B802372B74F71205719082
:103CF3001118E0F97E00800B125E53540D640170BD
:103D030001190E123EE75003E970ED02376374F7B1
:103D1300120571901119E0F97E00800B125E535465
:103D23008D64817001190E123EE75003E970ED02B4
:103D3300376374F2120571890BE975F006A4240C3C
:103D4300F508E5F01231AC8A0CE508250CFAE50913
:103D53003400FB1217A88A0C8B0DAE0CAF0DEE4F7F
:103D63006027AC08AD09790012170C123732E50B46
:103D7300F0EE2508F8EF3509F98E828F83A3A3A30C
:103D8300A3A3A3A3A3A31237F9EEFAEFFB024CE01C
:103D930074F6120571EAFEEBFF120EFC901117E0A8
:103DA300F8E9C3984009900345124EE5120F02EE5D
:103DB3002402F8EF1254F59003471253AF900347D0
:103DC300E004F0EEFAEFFB120F0885088285098301
:103DD300E00259ABC082C08379009003458001099A
:103DE300124EE58A828B83E582458370F202372B7C
:103DF30074F7120571EAFEEBFFEE4F605690034530
:103E0300124A6B604E888289837A007B00EE65825A
:103E13007003EF6583600FAA82AB83123E59E5827C
:103E23004583602F80E7900345123E65687002EF7B
:103E3300698E828F8370081237ED900345800312D9
:103E430062A11237F9EEFAEFFB122132EEFAEFFB21
:103E53001217AE023763123E5D221241D98882895E
:103E630083221241D5EE22C082C083900345800491
:103E730088828983124A6B600B8882898312451D6D
:103E8300EC4D70EC8A828B83E4F0A3F0E849600682
:103E930088828983800390034512377302372B741A
:103EA300F712057190034580048A828B83123EE2E8
:103EB3004B60257E0080010E123EE750ECEE75F05C
:103EC30006A4FCADF0EA2CFCEB3DFDEC2410F582DE
:103ED300ED123F3770E180047A007B0002376312F2
:103EE3005384EA22123F40EEC3982274F7120571FD
:103EF3007D0080010D123F3CEDC3985034ED75F009
:103F030006A4FEA8F0E8FFEA2EFEEB3FFFEE241026
:103F1300F582EF123F3770DCED75F006A4FEE8FF83
:103F2300EA2EFAEB3FFBEA2411F582EB125E674CB3
:103F3300F0023763125E736922123F40221267ADAB
:103F4300EB3400F583E0F82274F6120571121022A7
:103F53007A007B008025EAF8EBF9E875F006A4F80F
:103F6300ACF075F006E9A42C12535912666EA3E463
:103F730012544FF0A31266741267EB90257A122E37
:103F83002B40D37A007B00801C8A088B097403784A
:103F930008120C77124E0DA374FEF0A30412522FD5
:103FA300A3E41267EB902583123FEA40DC7A007B9F
:103FB30000801D8A088B0974037808120C77745CDF
:103FC300125ADF741012632674FEF0A3041267EB17
:103FD300902589123FEA40DB90258DE493900353AB
:103FE300F0123FF4023802E493F8C3EA98EB94002A
:103FF300227CE87D037A107B009003C2E0F912185B
:104003005C2274F012057174F5120B498A088B094E
:10401300890A8C0BE9A2E050147508FC7509FFA20C
:10402300E15005D2E40240C7D2E30240C7124CCCB0
:104033007003A3E06970057900024194AC0A790228
:10404300AA08AB09120FFEE960EDE50AF50C780C3E
:10405300120AA179027CFE7DFFAA08AB09124A4726
:10406300120AE5E96003024192E50AC2E5F50A9006
:1040730003B5E07051E50AA2E6404B7403120D8DBF
:10408300AC82AD83AA08AB09120DA6E970321243C4
:10409300688A0C8B0DA80CA90DE8FEE9FFE84960BE
:1040A30025EE24020A0AEF122B3B601AEE2402FCCF
:1040B300EF3400FD7403120D8DAA82AB83121F7CB3
:1040C300E50AD2E5F50A900348E0F50C900368E0B1
:1040D300F50EA3E0F50F780E120A9D7D017C00908A
:1040E3000348E0F9AA0EAB0F120FB67402120AE5E9
:1040F300E9F8900348E004F0E86003024192E50A1E
:10410300A2E55004740E80027406C0E07401120D1F
:104113008DD0E01257C18A0E8B0FAE0EAF0FEE4F4C
:1041230060691241B21241C9888289837401F074B3
:1041330078550AA31267B3E50C1267B3A3E508F039
:10414300E5091241A1E4F0E50AA2E5500F74031258
:104153000D8DAC82AD83E824061241988E828F8345
:10416300A3A374FDF0A374FFF0E50B6015902590F5
:10417300E493F8E50BC3985009EE2413125794E522
:104183000BF0EEFAEFFB120E4880067910800279ED
:10419300C7740B8049FAE93400FB121F7C22888222
:1041A3008983A3A3A3A31241AD22125528A322EE10
:1041B30024171257A57401F0121172EE241A125724
:1041C300A5EAF0A3EB22F01267A734001241D32231
:1041D300F5831241D922E0F8A3E0F922740D120A03
:1041E300E57F0802083674F61205717A007B101217
:1041F3005CAF60089003D47401F080299006CDE091
:10420300640190115E7006E0FC79018004E0FC79A2
:10421300037A007B00120F2090257812422B7A003C
:104223007B1012423902380212422F22E493FC74AB
:104233000193FD227B009003C2E0F9121856227409
:10424300EC1205718A088B098C0C8D0D890E741480
:10425300120D8D124C267416120D8DE0F510A3E08D
:10426300F5111211EAE960077AFF7BFF02436590BB
:10427300115DE0640260030243587900AA08AB09A8
:10428300121004A90E120FF88A128B13AE12AF1379
:10429300EE4F70030243408E828F83A3A3A3A3A395
:1042A300E064018E828F83A3A37069124EE58E8230
:1042B3008F83A3A3A3A3A3A3E05418604390258EE5
:1042C300E4938E828F83A3A3A3A3F0EA650C700308
:1042D300EB650D6014EA650A7003EB650B600AEA8F
:1042E30065107003EB6511701F7810120A9DAC0AFC
:1042F300AD0BAA0CAB0D1212E67402120AE580088C
:10430300900367125C99A3F074FE6A700374FF6BE9
:10431300601D804EA3A3A3E0640360298E828F8374
:10432300A3A3A3A3A3E0640470057AFE02426D8EE7
:10433300828F83A3A3A3A3A3E0640270089003B4B2
:10434300E0640270101243688B0BEA450B6006AA07
:1043530008AB09800DAA08AB09900349123CDA1295
:10436300219102628F900375124A4D1212AA227490
:10437300F7120571EAFEEBFF120DFAE9700AEEFA85
:10438300EFFB120E06E96006EEFAEFFB80047AFEFD
:104393007BFF02376374F01205718A0A8B0B8C0E54
:1043A3008D0F89097508001211EAE979006003028B
:1043B300450FAA0AAB0B121004A909120FF88A0CB5
:1043C3008B0DAE0CAF0DEE4F60198E828F83A3A3BE
:1043D300A3A3A3E0640270559003B4E064027003E6
:1043E30002450DAA0AAB0B90034F123CDA1221913E
:1043F300120E0C8A0C8B0DA80CA90DE84970030250
:10440300450D88828983A3A3A3A3A3E0A2E040036D
:1044130002450D750C01A2E150687901AC0AAD0BA0
:10442300AA0EAB0F120F50E9706402450D8E828FF6
:1044330083A3A3A3A3A3E064037005750C028052B6
:104443008E828F83A3A3A3A3A3E064016003024529
:104453000D90037512451D8E828F831248728A0C4C
:104463008B0DA80CA90DE84960D1902587E493FA38
:1044730088828983E0C39A50C2A3E0600302450D9A
:1044830080B988828983A3A3A3A3A3D2E1F0EE4FCB
:10449300603A8E828F83A3A3A3A3A3A3E0541860DF
:1044A3002B7508018E828F83A3A3120905750CFE59
:1044B300750DFF780C120A9D7900AC0AAD0BAA0E9C
:1044C300AB0F1210167404120AE5803E900368E0E5
:1044D300650E7004A3E0650F701490258FE493FCC0
:1044E300A909AA0AAB0B120F20750801801CA90C9D
:1044F300AC0AAD0BAA0EAB0F120F50E9700C750886
:1045030001A909AA0AAB0B120FAAA9080241E4E503
:104513000C2415F582E50D1257A81252052274EAF0
:1045230012057174F0120B498A0C8B0D8C088D09DE
:104533007426120D8DE0F514A3E0F515751206909F
:1045430003F5124A6B602390037512451DAA08AB4D
:10455300091212D48A108B11EA4511600D8A828BDD
:1045630083A3E07005790002485AE50C241DF50E7B
:10457300E50D3400F50F850E82124A57F513888234
:104583008983A3A3A3E0FA88828983A3A3A3A3E0D7
:10459300F9EA2400FEE439FFAA08AB09120FB0853B
:1045A3000E82850F83124895E029F50BE50AA2E5F3
:1045B300500375120E7487550A70177418550A64E0
:1045C30018600FE50C2417F582E50D125E6765127E
:1045D30060077901121F64808C530A78C3EE94F844
:1045E300EF94FF501D7900EEFAEFFB12486460125E
:1045F30088828983A3A3A3A3A3A3E054186003021F
:1046030045687808120A9D7D00124888120AE5E978
:10461300F87403687003024568E860030246D374C4
:1046230018550A7003024788E50AD2E0F50AA2E4A6
:104633005004D2E1F50AA90A124EDE12486460530F
:1046430088828983A3A3A3A3A3A3E0541860448807
:10465300828983A3A3A3A3A3E064017036E5104575
:1046630011603090037512451D8882898312487248
:104673008A0E8B0FA80EA90FE849601788828983D9
:10468300A3E0600F851082851183A31259B65003EE
:10469300024568E50AF50E780E120AA112487B124C
:1046A3000AE5E9702B7C007D0085148285158374EF
:1046B300FFF0A3F0850C82850D83A3A3A3A3A3A37B
:1046C300A3A3E06003124512A90B124EDE12197662
:1046D300851482851583E0F47003A3E0F4603990B8
:1046E30003B4E064027003024568124C17E0FAA3B6
:1046F300E0123CD6122191EA65087003EB6509606C
:1047030003024568EEFAEF123CD61221918514821A
:10471300851583EAF0A3EBF07808120A9D7D011258
:104723004888120AE5A90AEEFAEFFB1210048A0878
:104733008B09A808A909900368E0687003A3E069DE
:10474300600302484BEEFAEFFB120E0C8A088B094A
:10475300A808A909E849606E88828983A3A3A3A353
:10476300E06401600D88828983A3A3A3A3E06402AC
:104773007054851882851983AC82AD83EEFAEFFB02
:10478300120DA68055900361E0600FE50AF50E78DF
:104793000E120AA112487B120AE5E50AF50E780EFD
:1047A300120AA179027CFE7DFFEEFAEFFB124A4763
:1047B300120AE5E960030246D385148285158374E2
:1047C300FFF0A302471A121172EAFCEBFD8518826F
:1047D300851983AA82AB83121F7C850C82850D8386
:1047E300A3A3A3A3A3A3A3A3E06401700F12451281
:1047F3007408120D8DAA82AB83121F7C124A2112F8
:10480300562D4430F5087808120AA17401120D8D53
:104813008582088583097808120A9D740B120D8D11
:104823008582088583097808120A9DE513F50878BF
:1048330008120AA17900EEFCEFFD124EDE120F4AB8
:104843007406120AE5024568124A21125797124864
:1048530095E50BF012118A7410120AE57F0E020817
:1048630036120FF88A0E8B0FA80EA90FE84922A360
:10487300A31253841212D4227901AC08AD09125346
:1048830079124A4722AC0BA913125379120FB6744B
:104893000222125635A3A3A3A32274F01205717446
:1048A300F0120B498A0C8B0DECFAEDFB750F089097
:1048B30003F5124A6B60141259AF8A828B83E58227
:1048C30045836007A3E07003024A1C124A213400A7
:1048D300124A57F50B88828983124A2AE0FBEC249B
:1048E30000FEE43BFF88828983A3A3124A2AA3A381
:1048F300E0FBECF508E43BF50988828983A3A3A3D5
:10490300A3A3A3A3E0F50EE50AA2E45003750F10D9
:10491300A2E550067408250FF50F748F550A700F22
:10492300E50C2417F582E50D125E67650F600879C3
:1049330001121F64024A1C530A707800E50AA2E4BC
:104943005022124A21125E672408FCA3E03400FDC2
:104953007408120D8DAA82AB83121F7C7808E50AB6
:10496300C2E4F50AE50AA2E55028124A21125E675D
:1049730028F8A3E03400F9E82408FCE93400FD85B5
:104983001882851983AA82AB83121F7CE50AC2E5CC
:10499300F50AAC0EA90BEEFAEFFB120FBCE9F874A3
:1049A30003686075900368E06E7003A3E06F605E58
:1049B300E87054E50AF50F780F120AA1124A38126B
:1049C3000AE5E97054780A120AA17401120D8D8563
:1049D300820C85830D780C120A9D740B120D8D8544
:1049E300820C85830D780C120A9DE50BF50A780A73
:1049F300120AA1A90EAC08AD09EEFAEFFB120F4A99
:104A03007406120AE58012740468700D80B7780A80
:104A1300120AA1124A38120AE574100241E1E50CA8
:104A2300241DF582E50D22A3A3A3E0FC88828983DC
:104A3300A3A3A3A3227901124C1E1257A8124A4D15
:104A4300124A4722120F74740122E0FCA3E0FDAA6C
:104A530008AB0922F583123E5DA3E0F50A8882893B
:104A630083A3A3E0229003391253E02274E81205D2
:104A73007174F5120B49EAFEEBFF8C088D0989145A
:104A83007423120D8DE0F50F7424120D8DE0F512D1
:104A9300A3E0F5137426120D8DE0F516A3E0F517C8
:104AA3007428120D8DE0F50EA90F120FC28A108B18
:104AB300117401120D8D7408F0E50EA2E450037415
:104AC30010F0E50EA2E55004E02408F08518828575
:104AD3001983AA82AB831211D28A0C8B0DEA450D7E
:104AE3007003024BFEEA2417F582EB124C101211ED
:104AF30072E50C241AF582E50D1257971237737479
:104B030003120D8DAC82AD83AA10AB11120DA6E971
:104B1300601D124C087403120D8DA882A983E50C45
:104B23002418F582E50D125797E8F0A3E98024E5F0
:104B33000EA2E4501FE5106E7003E5116F7015129D
:104B43004C08E50C2418F582E50D125797E512F091
:104B5300A3E513F0124C17124C26850A82F58374D1
:104B630002F0A3E50E124C2EE50FF0EE850A8285C6
:104B73000B83A3A3A3F0EF850A82850B83A3A3A3CF
:104B8300A3124C2EA3A3A3E508F0E509850A8285A9
:104B93000B83A3A3A3A3A3A3F0AA10AB11120FB07B
:104BA300E92514850A82850B83A3A3A3A3A3A3A347
:104BB300F0750800E50EA2E45011AC12AD13E50A3E
:104BC3002408FAE50B12419A750808E50EA2E55090
:104BD30014AC16AD17E50A2508F8E50B3400F9E81F
:104BE3002408124198850C82850D83A3A3E510F058
:104BF300A3E511F0AA0CAB0D120E48740B120AE5D3
:104C03007F10020836E50C2416F582E50D1257A82D
:104C13007401F022124C1E1257A822E50C1267AE43
:104C2300E50D22E0F50AA3E0F50B22F0850A828563
:104C33000B83A3A32274F21205718A088B09ECFE7D
:104C4300EDFF890A7900124CCC7003A3E06970046C
:104C530079018073750B01900368E065087004A304
:104C6300E06509601F750B00780B120AA1A90AEE13
:104C7300FCEFFDAA08AB091212267401120AE5E93A
:104C8300F50B80417900EEFAEFFB120FF8EA4B6067
:104C93002B8A828B83A3A3A3A3A3A3E05418601C32
:104CA3007508FE7509FF7808120A9D8A828B83A313
:104CB300A31209051265C3120AE580097901EEFA08
:104CC300EFFB120ED2A90B80141210048A0C8B0D69
:104CD300A80CA90D900368E06822120AE57F06027A
:104CE300083674F41205717508A475090E7A10124A
:104CF30062CB8B0BEA450B7003123FF4900353E036
:104D030014F0700C90258DE493900353F01210105F
:104D13007E007F00806C850882850983A3A3A3A3FB
:104D2300E06059F46056E5082404F582E509125C55
:104D3300937049850882850983A3A3A3A3A3E06491
:104D4300037019790285088285098312451D850838
:104D530082850983A3A3124EE5120F50850882852D
:104D63000983A3A3A3A3A3E064016010850882853C
:104D7300098374FEF0A304124E3FE4F0123352127F
:104D830031A490257C126427408C7E007F008039FB
:104D93001211188E088F0974037808120C77741C8B
:104DA3002508FC74103509FD7A5C7B0F121106EAA5
:104DB3004B70DD8E088F0974037808120C77124E3E
:104DC3000D12666EE4F0123352902583E493F8C318
:104DD300EE98EF9400501B8E088F09740378081225
:104DE3000C77124E15E82407F582E9125C9370D60E
:104DF30080A17E007F00800A124E20600214F01210
:104E0300335212642440F10239A3124E1588828969
:104E13008322741C2508F874103509F922EEF8EF83
:104E2300F9E875F006A4F8AAF075F006E9A42AF9E2
:104E330074BC28F582740F39F583E022124E46A321
:104E4300A3A322F0850882850983A3A32274F71202
:104E5300057174E1120B49ECFEEDFF750800EE4F8E
:104E630060728A828B83E0241C125CC4124A6B60DA
:104E7300638A828B83124EE5851882851983AC82FF
:104E8300AD83EA241BF582EB125B95EA241CF582C1
:104E9300EB124EE112115A740B120D8D124EE97082
:104EA30003A3E069702E7402120D8DE06401702477
:104EB300741D120D8D123CDAE064017017741D121B
:104EC3000D8D123CDCA3A3E0F88E828F83E0687023
:104ED30003750801A908741F023760124C1E3400C1
:104EE300F58312538422122AF9E0682274F412051E
:104EF30071E97024790090034D123CDA1221918AF2
:104F03000A8B0BAE0AAF0B74FE6E700374FF6F70E7
:104F13001A90258AE4936013790190034D123CDAC9
:104F23001221918A0A8B0BAE0AAF0B12119602342F
:104F3300BA74F612057174F3120B4912171E8A081C
:104F43008B09AE08AF09900368E06E7003A3E06FAE
:104F530060E912117EEA6E7002EB6F60DEEEFAEF2B
:104F6300FB1211EAE970D4EE4F60D08518828519DF
:104F730083E4F004120D8DEEF0A3EF124F97E97066
:104F8300BA74FE6E700374FF6F60B0EEFAEFFB74D9
:104F93000D0237FF123884120DBE22C082C0831265
:104FA300119602372B7F0A02083674F2120571EA52
:104FB300FEEBFF8C0A8D0B8908740E120D8DE0F544
:104FC3000974FC6E700374FF6F70057900024CE086
:104FD30079001210048A0C8B0DAE0CAF0D90036890
:104FE300E06E7003A3E06F7006E509A2E650DCA94A
:104FF300091264B1706179007AFE7BFF1264B170AB
:10500300567418550970030250E478007900800340
:10501300122CF390257C122CEA40030250E4E8FAA8
:10502300E9FBEA75F007A4FAACF075F007EBA42CE2
:10503300FB74AA2AF582740E3BF583E0541870D0F2
:10504300E875F007A4F8AAF075F007E9A42AF97443
:10505300A428F8740E39F988828983A3A3A3A3A390
:10506300A3E054186009741855097003024FCE88E1
:10507300828983EEF0A3EFF074FE650A700474FF77
:10508300650B600312520B88828983A3A3A3A3A396
:10509300A3E509F0A2E0500D88828983A3A3A3A30B
:1050A300A3A3D2E2F07401650888828983A3A3A332
:1050B300A3A37038740112522FE05418602890256E
:1050C3008EE49388828983A3A3A3A31251F91212B6
:1050D300D48B0DEA450D6003024FCE780079008032
:1050E300397902024FD0900367E080D7E064017002
:1050F30003024FCE88828983A3A3A3A3A3A3E0546F
:1051030018600790258EE4938004900366E01241B3
:10511300A1E508F0024FCE122CF3902584E493FA14
:10512300C3E89AE994004003024FCE7A007B0080E3
:105133004BEAFCEBFDEC75F007A4FCAEF075F00751
:10514300EDA42EFD74A62CF582740E3DF583125743
:10515300B0E8FCE9FDEC75F017A4FC85F00975F0E7
:1051630017EDA42509FD74342CF582740D3DF583E8
:10517300E06E7003A3E06F609E12322790257C12CD
:1051830031B440AD12422BEC6A7002ED6B7088E8CB
:1051930075F017A4F8AAF075F017E9A42AF9743486
:1051A30028FE740D39FF7C177D007900EEFAEFFBC2
:1051B30012170C8E828F831252119003751251EBCA
:1051C300A3A3A3A3A3A3E8F0A3E91251F17401F0ED
:1051D300EE240E1257947401125219120391EE2405
:1051E3000D125794E8025116123743A3A322F0EE8F
:1051F300240F1257A522F0125202AA0AAB0B2290D7
:105203000375E0FCA3E0FD2288828983A3A3E50A5A
:10521300F0A3E50BF022F012521E22902587E493AF
:105223002401F8E43400F97A027B00221241ADA391
:105233002274ED1205718A088B09890E125362409C
:105243000579050253301219BEAA08AB091254346A
:1052530090257A125333650A7003E9650B70077A58
:10526300FE7BFF12543490257AE412533BE50A98EF
:10527300E50B99400302532E12533F6012E50A7562
:10528300F006A4F875F006E50B12538A1217AEE583
:105293000E6018E50A75F006A4F8AAF075F006E5A5
:1052A3000B1253B6701A7901025330E50A75F006F2
:1052B300A4F8AAF075F006E50B125397E4F0A3F0F7
:1052C300E50A75F006A4F8AAF075F006E50B12538B
:1052D30057A312564388828983A3AA82AB831253AE
:1052E300A58A828B83E0603F12533F603A8E108F12
:1052F300117512007810120A99E50EC333FCE433DA
:10530300FDE50A75F006A4F50AA8F075F006E50BAD
:10531300A428F50B74C0250AF582740F350B124EC1
:10532300E31231C5120AE57900800279070264C7E6
:10533300122E4CE822902572125E4E22E50A75F079
:1053430006A4F8AAF075F006E50B125392F8A3E051
:10535300F9E84922A42A1254EB88828983A322EC18
:10536300FEEDFF902585E493F8E9C39822F58312B7
:1053730053841217AE22E50C1267AEE50D3400F527
:1053830083E0FAA3E0FB22125392FAA3E0FB22127A
:105393005397E022A42AF974C028F582740F39F5D3
:1053A3008322E50EF090115F1253AF22E0888289C9
:1053B30083F02212550FF50CE93400F50DE50EC309
:1053C30033FAE433FB1217A8850C82850D83EAF0C8
:1053D300A3EBF0850C82850D831253E0221241D991
:1053E300E8492274F4120571ECFEEDFF740C120D02
:1053F3008D1237ED88088909125434AC0AAD0BECD1
:10540300F8EDF990257A12543C5021E875F006A482
:10541300F8AAF075F006E9125357E08E828F8312D3
:10542300544F1254451237F9790080027904023936
:10543300A3120F868A0A8B0B221231BDC3EC9AED9D
:105443009B221241D5850882850983221255242285
:1054530074F61205717E007F008028EEF8EFF9E8FC
:1054630075F006A4F8ACF075F006E9A42CF974BE47
:1054730028F582740F1260D26A7003A3E06B605741
:1054830012335212642440D312641F7002E96F7006
:105493004674FE6A700374FF6B703C7E007F00806D
:1054A30003123352126424502E124E2070F3EEF87E
:1054B300EFF9E875F006A4F81254E11255166017D7
:1054C3001254FDF8E91254F588821253708508824C
:1054D300850983E4F0A3F0EEFAEFFB02380275F0DE
:1054E30006E91254E922A42AF974BC28F8740F3986
:1054F300F9223400F98808890922EEF8EFF9E875F2
:10550300F006A4F875F006E912550F221254E9E8E3
:10551300240422A3A374FE1255211253E022F0A304
:105523000412552822F088828983A3A3A3A322749B
:10553300F6120571EA241DF582EB12562DF9604B24
:10554300EA241DF582EB125E672402FCA3E034001B
:10555300FD1253664003025620780080298C828D09
:1055630083E0F508A3E0FFE5082400E43FF509E83C
:1055730033FEE433FF74042EF58274103FF5831277
:10558300564312562308E8C39940D28A828B83A3D9
:10559300A3A3A3A3A3A3A3A312451D900368E06C35
:1055A3007003A3E06D700F7C047D10122A62124E0B
:1055B300E1120F7A8067EA2411F582EB125E6760CD
:1055C3005CFC74FF2CF07508017808120AA17508B9
:1055D300047509107808120A9DE9F5087808120A7B
:1055E300A1EA2412F582EB125E67F5087808120A25
:1055F300A1EA2415F582EB125797120905ECF9126B
:105603002A6212451A8A828B83A3A3A3A3A3A3A30B
:10561300A3A3124EE5120F927407120AE502380291
:10562300EC24020C0CED3400FD221257A81256355F
:10563300E022E0F8A3E0F5838882A32288828983AD
:10564300E508F0A3E509F02274EA12057174FD126E
:105653000B498A148B158C0E8D0F890D7419120D3D
:105663008D1257B0741B120D8DE0F511741C120DC1
:105673008DE0F50C741D120D8D124C26741F120D46
:105683008DE0F5106008E50CC33324048002740236
:10569300C0E07401120D8DD0E01257C18A088B0946
:1056A300EA4509700302578C8A828B83A3A3E5140E
:1056B300F0A3E5151262BAE50EF0A3E50FF0EA24B4
:1056C30013F582EB125797E50DF0EA2414F582EBFC
:1056D300125797E511F0EA2417F582EB125E67641F
:1056E3000170401211788A0E8B0FA80EA90F85083E
:1056F30082850983A3A3A3A3E0687003A3E0696081
:1057030022EE4F6011E508241AF582E50912579736
:10571300EEF0A3EF800CE5082417F582E509125794
:1057230097E4F012579B1257B08E828F837405F063
:10573300A3E5107004E50C80487401250C1257BAD8
:105743007A008028850A82850B83E01257B6850A82
:1057530082850B83A3E08E828F83F0E50A2402F512
:105763000AE50B3400F50BA30EAF830AEAC3950CCD
:1057730040D2121178EA1257B6121178EB8E828F4B
:1057830083F0AA08AB09120E48740302485CEE24A6
:105793000CF582EF1257A822122A731257A822EE91
:1057A300240BF582EF3400F58322900334E0FEA34B
:1057B300E0FF228E828F83F0A3AE82AF8322123862
:1057C300841211D222C082C083E9C333FCE433FDC7
:1057D300EA2CFAEB3DFBEA24FEF582EB34FF124E92
:1057E300E302372B74F212057189098A0A12536294
:1057F30040047900804075080080020508E508C36D
:105803009509502AE508C333F8E433F9EE28F58205
:10581300EF39F583C082C0831211788A0C8B0DD0C7
:1058230083D082E0650C7004A3E0650D70CDE50ABA
:10583300650870BE7901024CE074F012057174F3CF
:10584300120B498A088B098C0A8D0B890C750D0084
:105853001211EAE97900600302593EAA08AB091262
:105863001004A90C120FF88A0E8B0FAE0EAF0FEEB9
:105873004F700302593C8E828F83A3A3A3A3A3A3D8
:10588300E0A2E2400302593C121178EA650A700370
:10589300EB650B7011780D120AA1E4F50EF50F7884
:1058A3000E120A9D8044AA0AAB0B120E00E9640192
:1058B30070688518828519837404F07401120D8D44
:1058C300125211851882851983AA82AB83120DBEE9
:1058D300E964017045750D01780D120AA1E4F50E16
:1058E300F50F780E120A9D750D00780D120AA17836
:1058F3000D120AA17408120D8D85820E85830F780F
:105903000E120A9D902590E493F9AC0AAD0BAA08F8
:10591300AB09120F927407120AE58E828F83A3A339
:10592300A3A3A3A3E0A2E1400D8E828F83A3A3A32D
:10593300A3A3A3C2E2F0750D01A90D0241DF74F622
:10594300120571E9FE7900121004EEF9120FF88ABC
:10595300088B09A808A909E84960061267F5F980C8
:1059630002790402380274F61205717E0790035C13
:10597300E070341259AF8A088B09A808A909E849CD
:105983006025900361E0640188828983A3A3700B7F
:105993001259B6888289835001A3A3E0F91212F247
:1059A300E9FEEE70027E07EEF9023802125202128D
:1059B30012D422E0FA88828983A3E0C39A2274EE88
:1059C300120571EAFEEBFF890A8C0C8D0B7412121F
:1059D3000D8D123737125A8B1253695051890E7538
:1059E3000F007403780E120C777422250EF582745F
:1059F30010350FF583E0F8E50CC398502DE50B60E7
:105A03002475110074037810120C77741C2510F898
:105A130074103511F988828983A3A3A3A3A3A3E5F3
:105A23000C125A95F07900024FA8790380F9790096
:105A33007AFE7BFF125A8BE493651070047902801F
:105A4300E6E50B60E0890E750F007403780E120C07
:105A530077741C250EF87410350FF988828983A397
:105A6300EEF0A3EF125A9512522FE50C1241A974CE
:105A7300FF126674E50AF0900366E088828983A3C7
:105A8300A3A3A3A3A3A3809C120FF2E9F51090256F
:105A930083221267B7A3E508F0A3E5092274F6127F
:105AA3000571ECFF120FF290258312536950278979
:105AB3000875090074037808120C777421125ADFF1
:105AC3007410126326E0F8EFC3985006EFF07900E4
:105AD3008006790380027904023802EA2508F582F8
:105AE3002274F4120571EAFEEBFF120FF2E9F50AD4
:105AF3009025831253695019750B007403780A12A9
:105B03000C77741F250AF5827410350B124EE3804F
:105B13001890034B124A6B600CEEFAEFFB123CDD5C
:105B230012219180047AFE7BFF0239A374F61205D9
